:020000040000FA
:10000000020477E4F5A77597A5F50CF50BF50AF54D
:1000100009E47F19FEFDFCAB0CAA0BA90AA809C3D1
:1000200012036A501800E50C2401F50CE4350BF5B9
:100030000BE4350AF50AE43509F50980D4A2AF923C
:1000400000C2AF7597DE7597ADA20092AF22E4FFB4
:10005000FEFDEDC3940A748094805012D2EC30ED12
:10006000FDE5BD2FFFE5BE3EFEC2ED0D80E4AD0710
:10007000AC06E412023BE4FBFA79207841120199C4
:100080007B8D7AD779EA78C41200A57BA87A577954
:09009000E27840120199020274A9
:10009B000204CA0202E0E86480F8E933E833601135
:1000AB000460F0ED33EC337009E8FCE9FDEAFEEB9C
:1000BB00FF220460DED3EB9FEA9EE99DE8C2E78C4A
:1000CB00F0C2F795F0400CE8CCF8E9CDF9EACEFA9E
:1000DB00EBCFFB1202AB85D0F05804700320D5B3E5
:1000EB00E80470075002B2D50202EA92D5EC046024
:1000FB00F7E4CCC0E0C398F8603B94186008400D5F
:10010B00D0E0FB0202C2E4FBFAC9FC8028E830E431
:10011B0006E4C9FBE4CAFCE830E305E4C9CACBFC3E
:10012B00E854076010F8C3E913F9EA13FAEB13FB71
:10013B00EC13FCD8F130F52FC3E49CFCEF9BFFEEE6
:10014B009AFEED99FDD0E0FBEF4E4D4C701222DB89
:10015B00030202E7EC2CFCEF33FFEE33FEED33FD35
:10016B00ED30E7EB0202C2EF2BFFEE3AFEED39FD6D
:10017B00D0E0FB50130BBB00030202EAED13FDEEC4
:10018B0013FEEF13FFEC13FC0202C20202EAEC5D5A
:10019B00046005E8590470030202E01202AB580434
:1001AB0060F6EC4860F2EC7004FDFEFF22C860DBE9
:1001BB002481C85009C398600250060202E7985088
:1001CB00CAF582E9294B4A7005AB820202D675F05B
:1001DB00007C1A7880C3EF9BEE9AED99400DC3EF2C
:1001EB009BFFEE9AFEED99FDE842F0DC23ACF0D0DC
:1001FB00E0FFD0E0FED0E0FDAB8220E7101BEB6010
:10020B00BAEC2CFCEF33FFEE33FEED33FD0202C2F2
:10021B00E803F830E705C0F075F000EF2FFFEE3381
:10022B00FEED33FD40B830E7C280AA75F020800E9A
:10023B0075F010800575F0087D007E007F0033920D
:10024B00D530D50312035CEC334010EF33FFEE33A4
:10025B00FEED33FDEC33FCD5F0ED22E5F0247EA270
:10026B00D513CC92E7CDCEFF22EDD2E7CD33EC33D5
:10027B0092D524814006E4FFFEFDFC22FCE4CFCEA8
:10028B00CDCC24E0501174FF80EDC3CC13CCCD1337
:10029B00CDCE13CECF13CF0470F030D5DE02035C7E
:1002AB00E9D2E7C933E833F892D5EDD2E7CD33EC99
:1002BB0033FC5002B2D522EC30E7100FBF000C0E0E
:1002CB00BE00080DBD00040BEB6014A2D5EB13FCB4
:1002DB00ED92E7FD2274FFFCFDFEFF22E480F8A205
:1002EB00D574FF13FC7D80E480EFEF8DF0A4A8F0B4
:1002FB00CF8CF0A428CE8DF0A42EFE22BC000BBE1A
:10030B000029EF8DF084FFADF022E4CCF875F008F6
:10031B00EF2FFFEE33FEEC33FCEE9DEC984005FC2B
:10032B00EE9DFE0FD5F0E9E4CEFD22EDF8F5F0EEF3
:10033B008420D21CFEADF075F008EF2FFFED33FDDE
:10034B004007985006D5F0F222C398FD0FD5F0EA7E
:10035B0022C3E49FFFE49EFEE49DFDE49CFC22EBA4
:10036B009FF5F0EA9E42F0E99D42F0E89C45F022B1
:10037B0043870185878712004EAE07E4FDEDC394DA
:10038B001674809480502DED25E024CDF582E43455
:10039B0004F583E493D36480F8EE6480985012EDF7
:1003AB0025E024CEF582E43404F583E493FF0204C4
:1003BB00160D80C92285A7081200031204BF120470
:1003CB00AA12048E1204B11204401204C61204982D
:1003DB0012042D1203F41204B81204A212045012C8
:1003EB00045D12046A8508A72275A710E5985404CA
:1003FB005398FB5398FC43980275A5FF75A4FF75A2
:10040B00A3FC75A2184398044298227E007C007DC1
:10041B00FF1202F57D64120307C374FF9FF5FCF511
:10042B00EA22E59154045391FB7593E875921343BB
:10043B00910442912275BB1075BC3175B38175DF88
:10044B004F43E8C02253F77F75DA0275FBC875FC82
:10045B00C82253F77F75DB4275E9C875EAC8227568
:10046B00A71075CE10E4F5A775A88022787FE4F667
:10047B00D8FD7581200204831203C012004E1203B3
:10048B007B80FB75906B75A51475D50B2275A92018
:10049B00E5A9548060FA22C2DE75D908D2DE22E4C7
:1004AB00F5A775D4FF2275E34075E20222E4F5A7A8
:1004BB00758E402275A72075C6842275D11C22C269
:1004CB009F321E1E1F1F2020212122222323242482
:1004DB0025252626272728282A2B2C302E3A30464E
:0E04EB0032503352345435563658375A7D64E9
:00000001FF
