:020000040000FA
:100000000204B1AB07EB75F003A424FDF582E434E0
:1000100004F583E493FF7E007C007DFF1202F57DF2
:1000200064120307C374FF9FFAEB75F003A424FE68
:10003000F582E43404F583E493FF7E007C007DFFC9
:100040001202F57D64120307C374FF9F8AFCF5EA70
:10005000224387018587871203C68F08E4FFEFC319
:100060009411748094805021EF75F003A424FCF562
:1000700082E43404F583E493D36480F8E508648073
:100080009850030200030F80D52275BB1075BC3158
:0A00900075B38175DF4F43E8C0220D
:10009B000204F90202E0E86480F8E933E833601106
:1000AB000460F0ED33EC337009E8FCE9FDEAFEEB9C
:1000BB00FF220460DED3EB9FEA9EE99DE8C2E78C4A
:1000CB00F0C2F795F0400CE8CCF8E9CDF9EACEFA9E
:1000DB00EBCFFB1202AB85D0F05804700320D5B3E5
:1000EB00E80470075002B2D50202EA92D5EC046024
:1000FB00F7E4CCC0E0C398F8603B94186008400D5F
:10010B00D0E0FB0202C2E4FBFAC9FC8028E830E431
:10011B0006E4C9FBE4CAFCE830E305E4C9CACBFC3E
:10012B00E854076010F8C3E913F9EA13FAEB13FB71
:10013B00EC13FCD8F130F52FC3E49CFCEF9BFFEEE6
:10014B009AFEED99FDD0E0FBEF4E4D4C701222DB89
:10015B00030202E7EC2CFCEF33FFEE33FEED33FD35
:10016B00ED30E7EB0202C2EF2BFFEE3AFEED39FD6D
:10017B00D0E0FB50130BBB00030202EAED13FDEEC4
:10018B0013FEEF13FFEC13FC0202C20202EAEC5D5A
:10019B00046005E8590470030202E01202AB580434
:1001AB0060F6EC4860F2EC7004FDFEFF22C860DBE9
:1001BB002481C85009C398600250060202E7985088
:1001CB00CAF582E9294B4A7005AB820202D675F05B
:1001DB00007C1A7880C3EF9BEE9AED99400DC3EF2C
:1001EB009BFFEE9AFEED99FDE842F0DC23ACF0D0DC
:1001FB00E0FFD0E0FED0E0FDAB8220E7101BEB6010
:10020B00BAEC2CFCEF33FFEE33FEED33FD0202C2F2
:10021B00E803F830E705C0F075F000EF2FFFEE3381
:10022B00FEED33FD40B830E7C280AA75F020800E9A
:10023B0075F010800575F0087D007E007F0033920D
:10024B00D530D50312035CEC334010EF33FFEE33A4
:10025B00FEED33FDEC33FCD5F0ED22E5F0247EA270
:10026B00D513CC92E7CDCEFF22EDD2E7CD33EC33D5
:10027B0092D524814006E4FFFEFDFC22FCE4CFCEA8
:10028B00CDCC24E0501174FF80EDC3CC13CCCD1337
:10029B00CDCE13CECF13CF0470F030D5DE02035C7E
:1002AB00E9D2E7C933E833F892D5EDD2E7CD33EC99
:1002BB0033FC5002B2D522EC30E7100FBF000C0E0E
:1002CB00BE00080DBD00040BEB6014A2D5EB13FCB4
:1002DB00ED92E7FD2274FFFCFDFEFF22E480F8A205
:1002EB00D574FF13FC7D80E480EFEF8DF0A4A8F0B4
:1002FB00CF8CF0A428CE8DF0A42EFE22BC000BBE1A
:10030B000029EF8DF084FFADF022E4CCF875F008F6
:10031B00EF2FFFEE33FEEC33FCEE9DEC984005FC2B
:10032B00EE9DFE0FD5F0E9E4CEFD22EDF8F5F0EEF3
:10033B008420D21CFEADF075F008EF2FFFED33FDDE
:10034B004007985006D5F0F222C398FD0FD5F0EA7E
:10035B0022C3E49FFFE49EFEE49DFDE49CFC22EBA4
:10036B009FF5F0EA9E42F0E99D42F0E89C45F022B1
:10037B00E4F5A77597A5F50CF50BF50AF509E47FE0
:10038B0019FEFDFCAB0CAA0BA90AA809C312036A40
:10039B00501800E50C2401F50CE4350BF50BE43596
:1003AB000AF50AE43509F50980D4A2AF9200C2AF71
:1003BB007597DE7597ADA20092AF22E4FFFEFDEDBF
:1003CB00C3940A748094805012D2EC30EDFDE5BDDD
:1003DB002FFFE5BE3EFEC2ED0D80E4AD07AC06E49B
:1003EB0012023BE4FBFA792078411201997B8D7A5A
:1003FB00D779EA78C41200A57BA87A5779E27840BE
:10040B0012019902027485A70812037B1204EE12E3
:10041B0004D91204BD1204E012008A1204F512046E
:10042B00C71204671204451204E71204D112048A9E
:10043B001204971204A48508A72275A710E59854F7
:10044B00045398FB5398FC43980275A5FF75A4FFC2
:10045B0075A3FC75A218439804429822E5915404A5
:10046B005391FB7593E875921343910442912212B9
:10047B000411E4FF1200031203C612005180FB5358
:10048B00F77F75DA0275FBC875FCC82253F77F75C9
:10049B00DB4275E9C875EAC82275A71075CE10E462
:1004AB00F5A775A88022787FE4F6D8FD7581200228
:1004BB00047A75906B75A51475D50B2275A920E57B
:1004CB00A9548060FA22C2DE75D908D2DE22E4F587
:1004DB00A775D4FF2275E34075E20222E4F5A775F8
:1004EB008E402275A72075C6842275D11C22C29F0F
:1004FB0032220504230804240A04250C04270E04C5
:10050B002810052A14062C19072E1E0930230F322A
:10051B002D1933372434413035503E365A4A375F24
:04052B00567D646431
:00000001FF
